S00A0000746C2E737265633A
S11300000C942A000C9434000C9434000C943400A6
S11300100C9434000C9434000C9434000C9434008C
S11300200C9434000C9434000C9434000C9434007C
S11300300C9434000C9434000C9434000C9434006C
S11300400C9434000C9434000C9434000C9434005C
S11300500C94340011241FBECFE5D8E0DEBFCDBF21
S11300600E944F000C948F000C9400001ABA87E889
S113007086B980E487B9089597B18F70982B97B9A2
S1130080369A349BFECF8DE08A95F1F7000024B1B7
S113009085B190E0982F8827820F911D089581B330
S11300A08B6D81BBA09A0F2EF3E0FF2EF02D08E19B
S11300B010ECC8EED3E00E94360080E00E943C00C1
S11300C0F2BA181619066CF420E030E0E7EEF3E01B
S11300D03197F1F700C000002F5F3F4F821793075D
S11300E0A9F702BBFFEF24E33CE0F150204030408D
S11300F0E1F700C0000012BB9E01281B390B121649
S11301001306CCF680E090E0E7EEF3E03197F1F7E8
S113011000C00000019682179307B1F7CCCFF89482
S1050120FFCF0B
S9030000FC
